:020000040800F2
:10000000C8CF0120316A0008A11E0008A31E000805
:10001000A71E0008AB1E0008AF1E0008000000006D
:10002000000000000000000000000000B31E0008F7
:10003000B51E000800000000B71E0008B91E000829
:100040004B6A00084B6A00084B6A0008015E000812
:100050004B6A00084B6A00084B6A00084B6A0008AC
:100060004B6A00084B6A00084B6A00084B6A00089C
:100070004B6A00084B6A00084B6A00084B6A00088C
:100080004B6A00084B6A00084B6A00084B6A00087C
:100090004B6A00084B6A00084B6A00084B6A00086C
:1000A0004B6A00084B6A00084B6A00084B6A00085C
:1000B0004B6A00084B6A000855AE00084B6A0008FE
:1000C0004B6A00084B6A00084B6A00084B6A00083C
:1000D0004B6A0008A769000861580008BB65000862
:1000E0004B6A0008DD5D00084B6A00084B6A000897
:1000F0004B6A00084B6A00084B6A00084B6A00080C
:100100004B6A00084D4100084B6A00084B6A000822
:100110004B6A00084B6A00084B6A0008E559000862
:100120004B6A00084B6A00084B6A00084B6A0008DB
:100130004B6A00084B6A00084B6A00084B6A0008CB
:100140004B6A00084B6A00084B6A00084B6A0008BB
:100150004B6A00084B6A00084B6A00084B6A0008AB
:100160004B6A00084B6A00084B6A00084B6A00089B
:100170004B6A00084B6A00084B6A00084B6A00088B
:100180004B6A00084B6A000800F002F800F0B2F871
:100190000AA090E8000C82448344AAF10107DA45E2
:1001A00001D100F0A7F8AFF2090EBAE80F0013F082
:1001B000010F18BFFB1A43F0010318471C39010057
:1001C0003C3901000A444FF0000C10F8013B13F0D9
:1001D000070408BF10F8014B1D1108BF10F8015BA0
:1001E000641E05D010F8016B641E01F8016BF9D193
:1001F00013F0080F1EBF10F8014BAD1C0C1B09D1EA
:100200006D1E58BF01F801CBFAD505E014F8016B5B
:1002100001F8016B6D1EF9D59142D6D370470000ED
:100220000023002400250026103A28BF78C1FBD8FF
:10023000520728BF30C148BF0B6070476E2910F0CD
:10024000B98070290FF0CD85662911F0BA81652932
:1002500011F0B781672911F0B4816129AFF30080F3
:1002600003681B0A28BF41F0800169290FF03E8511
:1002700064290FF03B8575290FF038856F2910F040
:10028000B18178290FF09985E92910F04B81E42993
:1002900010F04881F52910F04581EF2910F0AE816A
:1002A000F8290FF098850368DB0928BF41F0800129
:1002B000632910F0BA80732910F0BF80E32910F091
:1002C0005C84F32910F06184002070471FB511F0A1
:1002D00073F910F0AFFC04000020002111F056F972
:1002E000401C60600020002111F03AF9E0601FBD61
:1002F00010B510BD10F071FC1146FFF7E7FF01F0DB
:1003000087FB10F049FD03B4FFF7F2FF03BC06F0D2
:10031000EBFA000030BF72B6704762B6704780F3E8
:10032000088870470EB504F05EFA00200C21F6A292
:100330000B46CDE9002102908022014604F045FCE5
:1003400000200C21F4A20B46CDE90021029080226E
:100350000D2104F03AFC00200C21F3A20B46CDE95C
:100360000021029080221A2104F02FFC00200C2191
:10037000F1A20B46CDE9002102908022272104F052
:1003800024FC00200C21F0A20B46CDE900210290B4
:100390008022342104F019FC40F6B83006F084FACB
:1003A0000EBD2DE9FE430025012704F01CFA0020B4
:1003B0001021E9A20B46CDE90021029080220146DE
:1003C00004F003FC00200C21E8A20B46CDE900213B
:1003D00002908022142104F0F8FB00200C21E7A2F7
:1003E0000B46CDE9002102908022342104F0EDFB80
:1003F00005F04DFE9AE005F019FEE249522005F0A5
:1004000008FF0746002F77D1DFA00FF0FDFB00208B
:100410000C21E0A20B46CDE900210290802226218A
:1004200004F0D3FBDE4805F00DFF0746DC4805F07D
:1004300081FF8046DA4BDB4A0421602005F0B5FFDE
:100440000746D949042006F003F80746D749042097
:1004500005F0E2FF0746CB4842780178D4A00FF0C0
:10046000D3FBD8A00FF0D0FB002406E0CC48015D00
:10047000D8A00FF0C9FB601CC4B2052CF6DBC4A0E9
:100480000FF0C2FB4146D5A00FF0BEFB05F0DBFD2F
:1004900000200C21D6A20B46CDE90021029080223B
:1004A000262104F092FB0222BD49D44806F029F926
:1004B0000122D349D14806F06DF9D148C0780090A7
:1004C000CF48837842780178CEA00FF09DFB0020C2
:1004D0000C21D2A20B46CDE90021029080222621D8
:1004E00004F073FB4FF47A7006F0DEF904F07BF948
:1004F0000020BDE8FE83FFE703F033FFC6B2681CAF
:1005000085B241F2883095FBF0F100FB115008B93B
:10051000012000E000200D2E01D1012100E000218A
:10052000084318B104F05FF90120E2E763E72DE921
:10053000F04F91B000200D90002410A908F0CAFEE1
:100540000FA9002008F060FF9DF83F609DF83D7006
:100550009DF83E809DF83C909DF840A09DF841009C
:100560000E909DF842B004F03EF900200C21AEA29E
:100570000B46CDE90021029080222621622004F062
:1005800024FB00200C21A9A20B46CDE900210290FA
:100590008022342104F019FBC1E10D98401C80B287
:1005A0000D9003F0DEFE05460C2D01D1012000E088
:1005B000002040F6B8320D99914201D1012100E0AE
:1005C0000021084320B104F00EF911B0BDE8F08F0E
:1005D0000D2D3AD1072C37D2DFE804F0040C141C9F
:1005E00024292E00BAF1000F03DDAAF1010000F06A
:1005F000FF0A29E00E98002803DD0E98401EC0B2C5
:100600000E9021E0BBF1000F03DDABF1010000F023
:10061000FF0B19E0B9F1000F03DDA9F1010000F0B3
:10062000FF0911E0002E01DD701EC6B20CE0002FA4
:1006300001DD781EC7B207E0B8F1000F03DDA8F1B5
:10064000010000F0FF0800BF00BF0E2D3AD1072CBB
:1006500037D2DFE804F0040C141C24292E00BAF170
:10066000170F03DA0AF1010000F0FF0A29E00E98E3
:100670003B2803DA0E98401CC0B20E9021E0BBF17B
:100680003B0F03DA0BF1010000F0FF0B19E0B9F1A9
:10069000070F03DA09F1010000F0FF0911E0632EF2
:1006A00001DA701CC6B20CE00C2F01DA781CC7B25C
:1006B00007E0B8F11F0F03DA08F1010000F0FF08AE
:1006C00000BF00BF0F2D05D1072C00DA641C072CDA
:1006D00000D10024102D00D122E1FA210D9890FBC9
:1006E000F1F201FB120070B9072C0BD2DFE804F025
:1006F00004ACB4BCC3CAD200182352A200210846DD
:1007000004F08FF9CEE0CEE0D6C7C4DCC3C5CBF889
:10071000CFB5CDB300000000D7F7D5DFA3BABBAF8C
:10072000D7F7B3BE00000000CAB1BCE43A323032A1
:10073000302D362D3235000071713A32383039376C
:1007400038363936330000004353444EA3BABBAFAA
:10075000D7F7B3BE000000003D3D3D20C2BCC8EB52
:10076000BFA8C6AC203D3D3D00000000C7EBB7C5AB
:10077000C8EBD0C2BFA8C6ACA3BA0000B7B5BBD8FF
:10078000000000002D0000207263353232206F6BB4
:100790000A000000B6C1BFA8B3C9B9A6A3A1000052
:1007A0002F000020340000203A00002072040020B6
:1007B000BFA8B5C4C0E0D0CDA3BA25237820252397
:1007C00078000000BFA8B5C4D0F2C1D0BAC5A3BAA2
:1007D000000000002523782000000000BFA8B5C459
:1007E000C8DDC1BFA3BA25644B626974730A0000F7
:1007F000D5FDD4DAC2BCC8EB2E00000004000F08FF
:10080000160000206361726469643D7B25582C25C5
:10081000582C25582C25587D0A000000C2BCC8EB76
:10082000B3C9B9A6A3A100003C2D2D00BCF5202022
:10083000BCD320202020C7D0BBBB2020C8B7B6A87F
:1008400000000000202000001823AFF20802002161
:10085000242004F0E6F825E01823AFF21802002166
:10086000482004F0DEF81DE00C23FDA219466E209E
:1008700004F0D7F816E00C23FAA21A21442004F061
:10088000D0F80FE00C23AFF244021A21622004F0EA
:10089000C8F807E00C23AFF254021A21742004F0C8
:1008A000C0F800BF00BF4FF4FA710D9890FBF1F251
:1008B00001FB120080BB00200D90CDF800B0524625
:1008C000EAA103A80E9B0FF0ABF9182303AA00219D
:1008D000084604F0A6F80FA9002008F095FD3B4655
:1008E0003246E6A103A8CDF800800FF099F90C2359
:1008F00003AA1A21442004F094F8A9F10100E44964
:1009000051F82020E3A103A80FF08AF90C2303AAD1
:1009100019466E2004F085F8012005F0C5FF3CE67D
:1009200000BF00235A4650460E9905F069F94B4620
:1009300042463946304605F075F903F054FF002071
:100940001021D5A20B46CDE9002102908022302152
:10095000142004F03AF94FF47A7005F0A5FF00BFB7
:1009600033E62DE9F0418AB0002600250024002757
:10097000A046CCA103C9CDE90801CAA103C9CDE9AC
:10098000060103F030FF00200C21C8A20B46CDE980
:1009900000210290802210210A2004F016F9002084
:1009A0000C21C7A20B46CDE90021029080221C2118
:1009B0000A2004F00AF900200C21C6A20B46CDE95A
:1009C00000210290802228210A2004F0FEF8002055
:1009D0000C21C5A20B46CDE90021029080223421D2
:1009E0000A2004F0F2F885E0721CC4A103A80FF0FD
:1009F00017F90020102103AA0B46CDE9002102902F
:100A000080220146052004F0E0F803F0AAFC054628
:100A1000002D53D04FF00008012D0DDB0A2D0BDA0D
:100A2000002C09DB062C07DA05F1300008A908556F
:100A30002A2006A90855641C0A2D0AD1002C08DBBF
:100A40000A2C06DA302008A908552A2006A90855DC
:100A5000641C0B2D04D10EB9012000E000200646D5
:100A60000C2D04D10FB9012000E0002007460D2D08
:100A700009D1002C07DD2021601E044608AA11546C
:100A8000202006A908550E2D0AD104E0202008A92F
:100A9000085506A908552000A4F10104F6D1002448
:100AA0000F2D08D103F09FFE4FF4FA7005F0FCFE05
:100AB0000AB0BDE8F081102D00D11CE037B90C233D
:100AC00006AA0021462003F0ACFF05E00C2308AA8B
:100AD0000021462003F0A5FF08F101001FFA80F86D
:100AE0004FF47A7098FBF0F100FB118010B903F01D
:100AF0007AFEDDE778E700BF76B9022208A98248CE
:100B000005F0FFFD022281497F4805F043FE7F4941
:100B10007FA00FF079F80DE0022208A97E4805F0C9
:100B2000F0FD02227D497C4805F034FE7B497CA023
:100B30000FF06AF803F057FE002010217AA20B464E
:100B4000CDE9002102908022302104F03EF84FF4DC
:100B50007A7005F0A9FE00BFAAE73EB5044620461C
:100B600004F008FB054600200C210B468022CDE94D
:100B700000510290302104F028F84FF4967005F0EF
:100B800093FE0C236CA23021002003F04AFF3EBDEF
:100B900038B50024002534E003F0E3FBC4B244B3CD
:100BA0000D2C02D14FF6FF7038BD0E2C02D14FF440
:100BB0007F40F9E7002C08DD0A2C06DA632D04DA01
:100BC00005EB850004EB400085B20F2C03D10A2011
:100BD00095FBF0F085B20A2C07D1632D05DA05EB01
:100BE00085004FF6FF7101EA4005102C01D128461F
:100BF000DAE70C2003232A46202100904E2003F040
:100C0000B0FEC9E73EB503F0EEFD002010214FA273
:100C10000B46CDE9002102908022014603F0D5FF6A
:100C200000200C214EA20B46CDE90021029080222B
:100C3000102103F0CAFF00200C214DA20B46CDE984
:100C4000002102908022342103F0BFFF322005F002
:100C50002BFEFFF79DFF05464FF6FF70854293E0A0
:100C600020202000202020200000000025303264B9
:100C70003A253032643A2530326400003230253073
:100C800032642D253032642D25303264000000009E
:100C90005C00002025730000C9E8D6C3B3C9B9A61B
:100CA000A3A10000202020202020000020312020AF
:100CB000203220202033202020342020000000007B
:100CC00020352020203620202037202020382020CA
:100CD0000000000020392020203020206368672099
:100CE000446973200000000044656C20436C72204E
:100CF00042636B204F6B202000000000D0C2C3DC99
:100D0000C2EB25643A00000004000208080000203D
:100D10007077643D25730000040009080F0000206F
:100D2000707764323D257300C3DCC2EBD0DEB8C4FB
:100D3000B3C9B9A620A3A100202020202020202074
:100D40002020202020202020000000003D3D3D20CC
:100D5000C9BEB3FDD6B8CEC6203D3D3D0000000063
:100D6000CAE4C8EBD6B8CEC64944A3BA0000000016
:100D7000B7B5BBD820C7E5BFD520202020C8B7C84D
:100D8000CFC9BEB3FD00000000D13DE0B5F57F4FF7
:100D900003D104F0D2F9044604E00121284604F00E
:100DA00096F90446CCB903F01EFD00200C21FEA2EA
:100DB0000B46CDE9002102908022142103F005FFAB
:100DC00000200C21FCA20B46CDE9002102908022DC
:100DD0003021502003F0F9FE02E02046FFF7BDFE6F
:100DE000F74804F0BDFC0C200090F6480088F44958
:100DF0000988421A032330216E2003F0B2FD4FF41C
:100E0000966005F051FD00BF03F0EDFC3EBD2DE9FD
:100E1000FE434FF0000803F0E6FC59E103F0A1FAAD
:100E20000746102F03D103F0DEFCBDE8FE83B8F1C6
:100E3000050F4DD2DFE808F0034D80B4DB00701CD5
:100E4000C6B200201021E0A20B46CDE9002102909D
:100E50008022014603F0B9FE00200C21DFA20B46E0
:100E6000CDE9002102908022182103F0AEFE00207F
:100E70000C21AFF2F8620B46CDE9002102908022EE
:100E80003421682003F0A1FE04F02FF80446E4B9F1
:100E90000120D649086004F045F804460020D449F2
:100EA000C1F8A0026CB90C21D2A20B46CDE90021F9
:100EB00002908022182103F088FE00264FF00108DE
:100EC00006E02046FFF749FE02E02046FFF745FE18
:100ED000F4E0701CC6B200200C21CAA20B46CDE97A
:100EE000002102908022182103F06FFE03F0FDFF25
:100EF0000446ECB90120BD490860022004F012F854
:100F000004460020BA49C1F8A0026CB90C21C1A264
:100F10000B46CDE9002102908022182103F055FEF6
:100F200000264FF0020806E02046FFF716FE02E01A
:100F30002046FFF712FEC1E000200C21B8A20B46AC
:100F4000CDE9002102908022182103F03EFE04F03A
:100F50000CF804466CB900200C21B7A20B46CDE971
:100F6000002102908022182103F02FFE4FF0030889
:100F700011E000200C21B5A20B46CDE90021029022
:100F80008022182103F021FE2046FFF7E6FD00260F
:100F900003F029FCB0464FF4966005F085FC8DE027
:100FA00000200C21AEA20B46CDE900210290802248
:100FB000182103F00AFE04F03DF804466CB9002045
:100FC0000C21ACA20B46CDE9002102908022182111
:100FD00003F0FBFD4FF0040804E04FF0000820464A
:100FE000FFF7BBFD4FF4966005F05EFC66E0002065
:100FF0000C21A5A20B46CDE90021029080221821E8
:1010000003F0E3FD00200C21A4A20B46CDE9002152
:101010000290802234217A2003F0D7FD00200C2199
:101020009FA20B46CDE9002102908022342103F0DB
:10103000CCFD00BFFFF7ACFD054662480088A84222
:10104000F8DD2946022004F012F8044674BB03F0D0
:10105000CAFB0020102198A20B46CDE90021029086
:1010600080221E2103F0B1FD554804F079FB0020D9
:101070000C2151A20B46CDE900210290802234219F
:10108000422003F0A2FD0C2000904E4800884C49FD
:101090000988421A032334215A2003F062FC40F2EB
:1010A000DC5005F001FC03F09EFBBEE64FF00008AB
:1010B0002046FFF752FD03F096FB00BF00BF4FF440
:1010C000C87005F0F1FB0A2E02D103F08CFB00E0A2
:1010D000A4E600BF00BFA8E62DE9F04389B00025D3
:1010E0000024A04600260027A14676A207CA06AB28
:1010F00007C374A207CA03AB07C303F074FB002045
:10110000102173A20B46CDE90021029080220146F6
:10111000052003F05AFD00200C21AFF270420B466F
:10112000CDE900210290802210210A2003F04DFD1C
:1011300000200C21AFF278420B46CDE9002102904D
:1011400080221C210A2003F040FD00200C2162A215
:101150000B46CDE900210290802228210A2003F0CD
:1011600034FD00200C21AFF280420B46CDE9002176
:101170000290802234210A2003F027FD1AE103F0B7
:10118000F0F80546002D0DD04FF00009012D0ADBC7
:101190000A2D08DA002C06DB0A2C04DA05F13000EF
:1011A00006A9A3E0E6E0A6E0C9BEB3FDD6B8CEC668
:1011B000B3C9B9A6A3A10000CAA3D3E000000000F0
:1011C00000000020540400203D3D3D20C2BCC8EB7F
:1011D000D6B8CEC6203D3D3D00000000C7EBB0B400
:1011E000D6B8CEC6A3A1202000000000A0824242B3
:1011F00000804242D6B8CEC6D5FDB3A3A3A120201D
:1012000020200000C7EBD4D9B0B4D2BBB4CED6B83E
:10121000CEC60000D6B8CEC6D5FDB3A3A3A10000AC
:10122000B6D4B1C8C1BDB4CED6B8CEC62020202019
:101230002020202000000000C1BDB4CED6B8CEC60C
:10124000D2BBD1F92020202020202000B6D4B1C864
:10125000CAA7B0DC20C7EBD6D8C2BC202020200013
:10126000C9FAB3C9D6B8CEC6C4A3B0E52E2E2E2077
:1012700020200000C9FAB3C9D6B8CEC6C4A3B0E5D1
:10128000B3C9B9A621000000C7EBCAE4C8EBB4A2F9
:10129000B4E649443A20202020202000200000000D
:1012A000C9BEB3FD20C7E5BFD520202020202020C7
:1012B00020C8B7C8CF000000C2BCD6B8CEC6B3C9DC
:1012C000B9A621002020202020202020202000005E
:1012D000C3DCC2EBA3BA000020392020203020203C
:1012E00020202020446973200000000008552A2097
:1012F00003A90855641C0A2D0AD1002C08DB0A2C0E
:1013000006DA302006A908552A2003A90855641CCE
:101310000C2D06D1B8F1000F01D1012000E0002012
:1013200080460D2D09D1002C07DD2021601E0446CA
:1013300006AA1154202003A908550E2D0AD104E055
:10134000202006A9085503A908552000A4F101048E
:10135000F6D100240F2D0AD103F045FA4FF4FA70AC
:1013600005F0A2FA4FF0FF3009B0BDE8F083102D70
:1013700000D120E0B8F1000F06D10C2303AA002110
:10138000352003F04EFB05E00C2306AA0021352092
:1013900003F047FB09F101001FFA80F94FF47A705E
:1013A00099FBF0F100FB119020B903F01CFA4FF00B
:1013B000FF30D9E7E3E600BF00240DE006A8005D9A
:1013C000FE49895D884202D1701C86B200E0002689
:1013D000062E00D102E0641C0A2CEFDB00BF0024C3
:1013E0000DE006A8005DF649C95D884202D1781C6F
:1013F00087B200E00027062F00D102E0641C0A2C0F
:10140000EFDB00BF062E01D1012000E00020062FF7
:1014100001D1012100E00021084340B303F0E3F9CA
:1014200000201821E7A20B46CDE90021029080227E
:101430000A21142003F0C9FB04F032FB002018211C
:10144000E3A20B46CDE90021029080220A2114205C
:1014500003F0BBFB01223021382003F018FC40F2DE
:10146000DC5005F021FA03F0BEF900207CE703F020
:10147000BAF900201021D9A20B46CDE90021029033
:10148000802230212D2003F0A0FB40F2DC5005F03B
:101490000BFA03F0A8F94FF0FF3065E77FB503F0D2
:1014A00024FD044603F09FF900201021CEA20B4634
:1014B000CDE9002102908022014603F086FB002C3A
:1014C00071D10120CC49086003F02CFD0446002CAA
:1014D0005DD1C9490860C948028803AB00210120D9
:1014E00004F0F6F80446002C45D103F07CF9002006
:1014F0001821B4A20B46CDE90021029080220A21D6
:10150000142003F062FB04F0CBFA00201821BCA2E7
:101510000B46CDE90021029080220A21142003F01D
:1015200054FB01221221702003F0B1FB4FF4FA6149
:10153000002009F018F90546BDF80E30BDF80C2062
:10154000B2A128460EF06CFB00200C210B46802235
:10155000CDE900510290342103F037FB29460020E9
:1015600009F0F1F84FF4E16005F09EF903F03BF962
:10157000002004B070BD2046FFF7EFFA4FF47A70F8
:1015800005F092F903F02FF94FF0FF30F1E7204614
:10159000FFF7E3FA0020984908604FF4FA6005F07D
:1015A00083F903F020F94FF0FF30E2E72DE9FE4325
:1015B000012704F03BFD9B49522004F02AFE074618
:1015C000002F6ED1AFF640600EF01EFB964804F07F
:1015D00039FE0746944804F0ADFE8046924B934A8C
:1015E0000421602004F0E1FE07469149042004F044
:1015F0002FFF07468F49042004F00EFF0746894855
:1016000042780178AFF658600EF0FEFAAFF64C6003
:101610000EF0FAFA002600240FE08348015DAFF6D1
:101620004C600EF0F1FA8048005D8349095D884204
:1016300001D1701CC6B2601CC4B2052CEDDB042EB7
:1016400021D17EA00EF0E0FA03F0CDF800201821A1
:101650005CA20B46CDE90021029080220A211420D1
:1016600003F0B3FA04F01CFA0020182164A20B4620
:10167000CDE90021029080220A21142003F0A5FA6E
:101680000020BDE8FE83AFF6F8600EF0BDFA4146DB
:10169000AFF6B8600EF0B8FA6EA00EF0B5FA0024FE
:1016A00014E015E000250AE004EBC4002844614A78
:1016B000115CAFF6E0600EF0A7FA681CC5B2092D08
:1016C000F2DB66A00EF0A0FA601CC4B2022CE9DBCB
:1016D00004F0B9FC0120D4E700B58DB00CA90020BE
:1016E00007F0F8FD9DF8320000909DF831309DF82C
:1016F0003020AFF6882101A80EF092FA182301AA33
:101700000021084603F08DF90BA9002007F07CFEAC
:101710009DF82E0000909DF82D309DF82F20AFF6FB
:10172000A42101A80EF07CFA0C2301AA1A2144205E
:1017300003F077F99DF82C00401E494951F820200C
:10174000AFF6B02101A80EF06BFA0C2301AA1946DE
:101750006E2003F066F90DB000BDFEB5002003F069
:10176000D5FA40F6B83005F09FF803F03CF8B9E040
:1017700003F039F806233BA20021084603F051F993
:1017800002F0F2FF13E006233BA20C21002003F03D
:1017900048F9C82005F088F806233BA20C21002058
:1017A00003F03FF9C82005F07FF802F0DDFF01F0FB
:1017B000A1FC0028E7D106236EE00000080000200D
:1017C0000F000020BDE2CBF8D6D02E2E2E00000058
:1017D000D2D1BDE2CBF8A3A120000000C3DCC2EB54
:1017E000B4EDCEF3A3A10000D5FDD4DABCECB2E297
:1017F000D6B8CEC600000000A082424254040020A9
:10180000D2D1BDE2CBF8A3A10000000049443A25A3
:1018100064202020202020C6A5C5E4B7D63A256440
:10182000000000002D0000202F00002034000020C8
:101830003A000020720400201600002072666964DD
:1018400020C6A5C5E4B3C9B9A6A3ACBDE2CBF80ACE
:1018500000000000BFA8CAFDBEDDA3BA0A00000058
:101860005C0000204578706C6F7265722053544D97
:101870003332463400000000534420436172642038
:101880004661696C656421002020202020202020F2
:101890002020202020202000FBA2182103F0C1F8E6
:1018A0000623FCA22421002003F0BBF8FEA3102293
:1018B0006E2114200DF0E8FF064611E00623FBA27E
:1018C0003021002003F0ADF8C82004F0EDFF06231E
:1018D000FBA23021002003F0A4F8C82004F0E4FFAC
:1018E000002EEBD10EF035F900287FF441AF02F065
:1018F0007AFF00200C21F7A20B46CDE900210290CF
:101900008022014603F061F900200C21F6A20B466B
:10191000CDE900210290802203F057F91DE04FF439
:10192000C87004F0C1FF00200C21F4A20B46CDE9E1
:10193000002102908022182103F047F94FF44870EB
:1019400004F0B2FF00200C21E7A20B46CDE90021F4
:1019500002908022182103F038F9ED4803F037FF98
:101960000028DCD10C21EBA20B46CDE9002102902E
:101970008022182103F029F91E21002008F0F3FE2F
:101980000446E3484FF46142E7A1036820460EF0A5
:1019900047F900200C210B468022CDE9004102903E
:1019A000242103F012F9E54803F0DAFE054615B1EB
:1019B0002846FFF7D2F8E24803F091FC0546CDB97E
:1019C00032220021204608F002FEDD48837800889C
:1019D000DA490988421ADBA120460EF021F90020DD
:1019E0000C210B468022CDE900410290302103F00A
:1019F000ECF802E02846FFF7B0F82146002008F096
:101A0000A2FE4FF47A7004F04FFF02F0ECFEFEBD30
:101A10000EB5002600244FF4A06005F029F804F06C
:101A200013F90021042004F0A3F9A82004F0DAFE41
:101A30004FF4E13004F065FF4FF4165004F06AFDF6
:101A40004FF4614003F03CFF03F0B4F900F03EFBBB
:101A500002F05CFC03F014F800F004FC04F002F85F
:101A6000002008F0BEFD022008F0BBFD0DF09AF941
:101A7000B949012208688CA10BF029FBB649012263
:101A80004868B6A10BF023FBFFF767FE0222B449BA
:101A9000B44804F07FFE0222B349B44804F07AFE51
:101AA0000122B349B34804F075FEE5E100BF00220E
:101AB0003021382003F0EBF8A0E07F1C4FF4FA60EF
:101AC00097FBF0F100FB117008B9FFF705FE41F23A
:101AD000883097FBF0F100FB1170002867D10027D8
:101AE00004F0D5FAFFF762FDA349086008460068D4
:101AF00000B984E000223021382003F0C8F898486B
:101B000004F0A0FD9C49086008460068F0B902F0A6
:101B10006AFE00201821AFF254320B46CDE90021B5
:101B2000029080220A21142003F04FF803F0B8FF3E
:101B300000201821AFF238320B46CDE90021029087
:101B400080220A21142003F040F858E000223021BE
:101B5000382003F09CF8844804F074FD864908603E
:101B600008460068F0B902F03EFE00201821AFF2EE
:101B7000AC320B46CDE90021029080220A211420CC
:101B800003F023F803F08CFF00201821AFF290320D
:101B90000B46CDE90021029080220A21142003F097
:101BA00014F82CE000223021382003F070F873483C
:101BB000006888B10CE0FFF771FC6F4908600846C7
:101BC000006800B91BE000223021382003F05FF8E4
:101BD0006A4800680028EED102F0C3FB0546681C85
:101BE00060B1FFF779FA644908600846006800B9F7
:101BF00005E000223021382003F049F85DE702F0CB
:101C0000F2FD032C0DDA002010215DA2CDE90021A8
:101C10000290210110238022052002F0D6FF002629
:101C200010E00020102156A2CDE900210290E01E14
:101C30004FF6FF7202EA001110238022052002F005
:101C4000C4FF0326002110224E4850F826001346F8
:101C5000CDE9012100908022192002F0B6FF002179
:101C60001022484B701C53F820001346CDE9012187
:101C7000009080221021192002F0A7FF00211022DD
:101C8000404BB01C80E0000053442043617264204C
:101C90004F4B0000466F6E74205570646174696E1E
:101CA000672E2E2E00000000303A0000466F6E7442
:101CB00020557064617465204661696C656421001B
:101CC0002020202020202020202020202020202014
:101CD0002020200066696E6765727072696E7420DC
:101CE00073797374656D2100636F6E6E6563742024
:101CF000746F20617336303800000000636F6E6EC1
:101D0000656374206661696C6564212000000000D1
:101D1000BC000020636F6E6E65637420737563632F
:101D20006565642100000000626175643A256420E5
:101D300020616464723A25780000000000000020F1
:101D40005404002063617061636974793A256420EA
:101D5000204C763A2025640038040020313A0000F7
:101D600008000020040002080F00002004000908F9
:101D70001600002004000F081C000020180240423A
:101D80002D3E00007800002053F820001346CDE9D6
:101D90000121009080222021192002F016FF00204E
:101DA0000C2136A20B46CDE900210290802234217D
:101DB00002F00BFF4FF000085DE008F1010842F26D
:101DC0001070804501DD012000E000200F2D01D1C1
:101DD000012100E000210843D8B14FF0000802F0D3
:101DE00002FD002010212BA20B46CDE9002102901C
:101DF000802214211E2002F0E8FE0022302138202B
:101E000002F045FF4FF47A7004F04EFD02F0EBFC57
:101E10004DE602F0A6FA054655B30D2D04D1002C6F
:101E200001DD601EC4B2EAE60E2D04D1052C01DAF4
:101E3000601CC4B2E3E6102D1AD1062C16D2DFE8DE
:101E400004F00306090C0F12FEF7E1FF0EE0FEF7A7
:101E5000D9FE0BE0FEF785FD08E0FEF768FB05E024
:101E6000FEF79FFA02E0FEF75DFA00BF00BFC6E68C
:101E7000012004F019FDA0E718E60000C9CF2020DA
:101E800020CFC2202020CBF8B6A82020C8B7B6A803
:101E900000000000D2D1CBF8B6A8A3A1000000003A
:101EA000704700BFFEE700BFFEE700BFFEE700BFD0
:101EB000FEE7704770477047704700000CB5002080
:101EC000019000907648006840F4803074490860C2
:101ED00000BF7348006800F4003000900198401C77
:101EE0000190009818B90198B0F5A04FF1D16C4855
:101EF000006800F4003010B10120009001E00020E3
:101F000000900098012846D165484030006840F0B4
:101F100080506349403108606248006840F44040A6
:101F2000604908605E48083000685D490831086013
:101F30000846006840F4004008600846006840F425
:101F4000A05008605848091F0860081F006840F04A
:101F50008070091F086000BF5148006800F00070E1
:101F60000028F9D040F20570504908604C4808300C
:101F7000006820F003004A490831086008460068FC
:101F800040F00200086000BF45480830006800F0DB
:101F90000C000828F8D10CBD10B54548006840F485
:101FA0007000434908603E48006840F001003C4929
:101FB000086000203A4908310860394800683D4906
:101FC0000840374908603C48091D0860081F006840
:101FD00020F48020091F0860002031490C3108607E
:101FE000FFF76CFF4FF0006031498039086010BD89
:101FF00070B500200022022300240221284D08355C
:102000002D6805F00C0020B1042806D0082834D132
:1020100007E02A4D2A4E356033E02A4D284E3560C0
:102020002FE01F4D2D1D2D68C5F380541C4D2D1D17
:102030002D6805F03F0154B1224DB5FBF1F5184E66
:10204000361D3668C6F3881605FB06F209E01B4DFF
:10205000B5FBF1F5124E361D3668C6F3881605FB42
:1020600006F20F4D2D1D2D68C5F301456D1C6B004B
:10207000B2FBF3F5124E356003E0104D104E3560A3
:1020800000BF00BF064D08352D68C5F303150E4E81
:10209000705D0B4D2D68C540094E356070BD000068
:1020A000003802400070004008544007003C0240E5
:1020B00088ED00E0FFFFF6FE103000240024F4005D
:1020C0009400002000127A00980000201CB5012125
:1020D000202005F061F84FF4C060009001208DF8D9
:1020E000040000208DF8060003208DF80500012073
:1020F0008DF807006946044804F0B0FD4FF4C06154
:10210000014804F027FE1CBD0014024010B504462F
:1021100000BF0221414806F01FFC0028F9D02146EB
:102120003E4806F0D0FB00BF01213C4806F014FCFD
:102130000028F9D0394806F0C3FBC0B210BD00B585
:1021400087B00121084605F027F80121080305F0B2
:102150007DF83820059002208DF8180000208DF8B9
:102160001A0003208DF8190001208DF81B0005A925
:102170002B4804F073FD05220321294804F0F9FDE2
:1021800005220421264804F0F4FD052211462448C6
:1021900004F0EFFD0121080305F0ADF800214FF434
:1021A000805005F0A8F80020ADF800004FF48270D0
:1021B000ADF802000020ADF804000220ADF80600E2
:1021C0000120ADF808004002ADF80A003820ADF853
:1021D0000C000020ADF80E000720ADF81000694695
:1021E0000E4806F0F5F901210C4806F0EBFAFF2045
:1021F000FFF78CFF07B000BD10B504460748008804
:102200004FF6C771084005490880084600882043FA
:1022100008800121014806F0D5FA10BD00300140C8
:102220000004024010B500240020D8490860902026
:10223000FFF76CFF0020FFF769FF0020FFF766FF44
:102240000020FFF763FFFF20FFF760FF44EA002450
:10225000FF20FFF75BFF04430120CD49C1F8B8021E
:10226000204610BD1CB50121022004F095FF01217C
:10227000402004F091FF4FF48040009001208DF841
:10228000040000208DF8060003208DF805000120D1
:102290008DF807006946BF4804F0E0FC80200090FC
:1022A0006946BD4804F0DAFC8021BB4804F052FDC9
:1022B0000120B6490860FFF742FF0020FFF79CFFAE
:1022C000FFF7B0FFB54908801CBD10B50024002001
:1022D000AE4908600520FFF719FFFF20FFF716FF42
:1022E00004460120AA49C1F8B802204610BD10B525
:1022F00004460020A54908600120FFF707FF20469B
:10230000FFF704FF0120A249C1F8B80210BD10B5C3
:1023100000209E4908600620FFF7F8FE01209C4936
:10232000C1F8B80210BD10B500209849086004201B
:10233000FFF7ECFE01209649C1F8B80210BD2DE967
:10234000F04106460C4617460020904908600320DD
:10235000FFF7DCFEC4F30740FFF7D8FEC4F3072005
:10236000FFF7D4FEE0B2FFF7D1FE002505E0FF2025
:10237000FFF7CCFE7055681C85B2BD42F7DB01202B
:1023800082490860BDE8F08110B500BFFFF79DFFEE
:1023900000F001000028F9D110BD2DE9F0410646FA
:1023A0000C461746FFF7B3FF00207849086002206B
:1023B000FFF7ACFEC4F30740FFF7A8FEC4F3072005
:1023C000FFF7A4FEE0B2FFF7A1FE002504E0705D78
:1023D000FFF79CFE681C85B2BD42F8DB01206B490B
:1023E0000860FFF7D1FFBDE8F0812DE9F041074615
:1023F0000E461446F0B2C0F58075AC4200DC2546AE
:1024000012E02A4631463846FFF7C7FFAC4200D1FA
:102410000BE02F442E44601B84B2B4F5807F02DDB4
:102420004FF4807500E02546EBE700BFBDE8F08182
:1024300010B5044621465AA00DF0E6FB2403FFF731
:1024400066FFFFF7A1FF0020504908602020FFF73A
:102450005DFEC4F30740FFF759FEC4F30720FFF702
:1024600055FEE0B2FFF752FE01204949C1F8B8021B
:10247000FFF78AFF10BD2DE9F05F81460F46164633
:10248000DFF824B14FEA1738C7F30B0ACAF58054B6
:10249000A64200DC344644E04FEA08314FF4805253
:1024A0005846FFF74CFF002508E00AEB05001BF833
:1024B0000000FF2800D003E0681C85B2A542F4DBD1
:1024C00000BFA54216DA4046FFF7B2FF002507E03D
:1024D00019F8050005EB0A010BF80100681C85B22C
:1024E000A542F5DB4FEA08314FF480525846FFF71A
:1024F0007CFF04E0224639464846FFF776FFA642B5
:1025000000D10FE008F101084FF0000AA144274470
:10251000301B86B2B6F5805F02DD4FF4805400E0D8
:102520003446B9E700BFBDE8F09F10B5FFF7EFFEF6
:10253000FFF72AFF002015490860C720FFF7E6FDD6
:1025400001201349C1F8B802FFF71EFF10BD10B5F6
:1025500000200E490860B920FFF7D8FD01200C4982
:10256000C1F8B802032004F057F910BD10B50020DF
:1025700006490860AB20FFF7C9FD01200449C1F8F6
:10258000B802032004F048F910BD0000B8824042B0
:10259000008040420004024000180240A8000020D1
:1025A00066653A25780D0A00840400200020FE4963
:1025B0000860091D0860091D0860091D0860FA49C6
:1025C00024310860091D0860091D0860F748F649B4
:1025D000383108600020091D08607047014600205E
:1025E000012900D011B9F24B197000E02620704784
:1025F0000146ED4A121D106820F0FF0008431060EC
:10260000704770B5044606E0E7483430056805F0C9
:10261000450000B100E0F7E700BF042006F094FA9F
:1026200020B1042006F09BFA032070BD012006F0C3
:102630008BFA20B1012006F092FA0120F5E7DA4882
:1026400010300068A04201D01020EEE740F2FF50A9
:1026500006F085FAD4481430006808210840C0B25A
:10266000E3E72DE9FC4107460D4600260024002043
:10267000009001900820CF49086010204860402059
:1026800088600020C8604FF480600861084606F04A
:10269000C8F91020FFF7B5FF044614B12046BDE885
:1026A000FC81C54800880004C249086037204860A2
:1026B000402088600020C8604FF4806008610846B0
:1026C00006F0AFF93720FFF79CFF04460CB1204617
:1026D000E5E74FF0FF30B949086008204860302036
:1026E00088600220C8600020086101204861084617
:1026F00006F0C3F90020AF4908603320486040204D
:1027000088600020C8604FF480600861084606F0C9
:1027100088F93320FFF775FF04460CB12046BEE769
:102720000DE04FF4001006F00FFA40B19E488030E3
:1027300000684DF82600761C022E00D307E09A4868
:102740003430006840F22A6108400028E9D000BF18
:10275000082006F0F9F920B1082006F000FA04205C
:102760009DE7022006F0F0F920B1022006F0F7F90B
:10277000022094E7202006F0E7F920B1202006F09F
:10278000EEF906208BE74FF4007006F0DDF928B172
:102790004FF4007006F0E3F9072080E740F2FF50A5
:1027A00006F0DDF900980006009901F47F4140EA47
:1027B0000120009901F47F0140EA1120009940EACC
:1027C0001160686001980006019901F47F4140EAB8
:1027D0000120019901F47F0140EA1120019940EAAA
:1027E0001160286020465AE77CB505460024002089
:1027F0000090019000260DB1022600E000266A48F4
:102800001430006800F0007008B10E207CBD6A49E9
:10281000098888B26946FFF724FF04460CB12046B8
:10282000F4E7019800F4802060B363480088000456
:102830006049086037204860402088600020C860F8
:102840004FF480600861084606F0EBF83720FFF788
:10285000D8FE04460CB12046D8E75648066006204C
:1028600054494860402088600020C8604FF4806070
:102870000861084606F0D5F80620FFF7C2FE0446B8
:102880002046C3E72520C1E770B5044600254C4823
:102890000078032802D12725284670BD48480078D3
:1028A00038B147480078012803D04548007802280D
:1028B00019D1B4F5805F02D127252846EDE7E0B2B3
:1028C000FFF792FF054675B93748001D006820F4F0
:1028D000C0503549091D086008460068204308605B
:1028E0000846006808602846D7E710B50446314816
:1028F000046007202F494860402088600020C8609D
:102900004FF480600861084606F08BF80720FFF757
:1029100078FE10BDF0B5014600200022284B1B7840
:1029200081F85630244B1B88A1F85430254B1B6886
:102930001A0E93090B70C2F383034B7002F003036A
:102940008B70204B1B68C3F30742CA701D4B1B885A
:10295000C3F307220A711B4B1A784A715B681A0E7F
:102960001301CB80174B5B68C3F30742CB8843EA64
:102970001213CB8002F00F030B72124B9B88C3F330
:102980000722D3094B72C2F380138B72C2F3401338
:10299000CB72C2F300130B7300234B73084B1B78ED
:1029A000C3B1074B1B780FE0002C0140FF07C000AC
:1029B000B4000020A0140020B0000020B4140020B7
:1029C000AC000020CC140020012B03D0FE4B1B7860
:1029D000032B4FD193071B0D0B61FC4B1A790B692D
:1029E00043EA82030B61F94B9B681A0E0B6943EAB9
:1029F00092130B61C2F3C2030B7502F007034B7510
:102A0000F24B9B68C3F3074253098B75C2F38203F1
:102A1000CB7593075B0F0B76EC4B1B89C3F3072237
:102A20000B7E43EAD2130B760B695B1C0024C1E9D1
:102A300012340B7E9B1C012404FA03F3DC17D1E94A
:102A40001256A5FB037C06FB03C305FB0433C1E957
:102A500012730C7A0123A3400B650024D1E912659F
:102A60000B6DA6FB037C05FB03C306FB0433C1E926
:102A700012732EE0D44B1B78022B2AD1D34B1A7938
:102A800093069B0A0B61D14B9B681A0E0B6943EAB4
:102A900002230B61CD4B9B68C3F307420B691343C1
:102AA0000B61CA4B1B89C3F307220B695B1C4FF4F4
:102AB0000074A3FB04464FF480630025A4FB037C51
:102AC00006FB03C304FB0533C1E912734FF4007323
:102AD0000B65C2F3801301F8193F93065B0E4B7030
:102AE000BA4B1A7A4B7843EAD2134B7002F07F0349
:102AF0008B70B64BDB681A0ED309CB70C2F341134F
:102B00000B71C2F382034B7193071B0F8B71AF4B99
:102B1000DB68C3F307428B7943EA92138B71C2F3EC
:102B20004013CB7100230B7202F001034B72A74BD1
:102B30009B89C3F30722D3098B72C2F38013CB7234
:102B4000C2F340130B73C2F300134B73C2F3810340
:102B50008B7302F00303CB739C4B1A7B53080B74EB
:102B600001234B749A4B1B681A0ECA741939984B7F
:102B70001B68C3F307421402CC85954B1B88C3F333
:102B80000722CB8D1343CB85914B1A7814060C6327
:102B90005B681A0E0B6B43EA02440C638C4B5B6858
:102BA000C3F307420B6B43EA02240C63884B9B88F8
:102BB000C3F307220B6B13430B63854B1A79342342
:102BC0005A54834B9B681A0E35235A54804B9B688A
:102BD000C3F3074214068C637D4B1B89C3F30722A2
:102BE0008B6B43EA02448C63794B1A7A8B6B43EA12
:102BF00002248C63764BDB681A0E8B6B13438B635A
:102C0000734BDB68C3F307423C235B5C43EA12145B
:102C10003C235C5413071C0DCC876D4B9B89C3F37D
:102C20000722CB8F1343CB87694B1A7B5408402371
:102C30005C54012441235C54F0BD70B500264FF470
:102C4000803505E06348046804F0450000B103E006
:102C50002800A5F10105F5D100BF15B104F004006D
:102C600028B10326042005F07AFF304670BD01200C
:102C700005F06AFF18B10126012005F070FF40F24F
:102C8000FF5005F06CFF3046F0E72DE9F0410546B6
:102C90000E464FF0000805E04E48076807F0450073
:102CA00000B100E0F8E700BF042005F04DFF28B1B7
:102CB000042005F054FF0320BDE8F081012005F059
:102CC00043FF20B1012005F04AFF0120F4E741480D
:102CD00024380068A84201D01020EDE740F2FF50F0
:102CE00005F03DFF3B482038046804F4604018B903
:102CF000200C30804046DFE704F4005008B1132078
:102D0000DAE704F4804008B11020D5E704F400406D
:102D100008B10F20D0E74046CEE738B500240120A7
:102D2000009005F078FE10B92524204638BD2648CD
:102D30000078042825D00020274908600220486038
:102D4000C02088600020C8604FF480600861084699
:102D500005F067FEFFF771FF04460CB12046E5E77A
:102D60001C48203800681A4908601A481C38006856
:102D70004860184818380068886016481438006899
:102D8000C8601148007858B10F480078012807D072
:102D90000D480078062803D00B480078022821D17E
:102DA00000200D4908600320486040208860002012
:102DB000C8604FF480600861084605F032FE69463D
:102DC0000320FFF762FF09E0AC000020CC140020D4
:102DD000DC140020342C0140A014002004460CB167
:102DE0002046A3E7FE480078032816D1BDF800006E
:102DF0000004FC49086003204860402088600020EF
:102E0000C8604FF480600861084605F00AFEFFF7CD
:102E100014FF04460CB1204688E7F14800780428E6
:102E20002AD0BDF80000F0490860BDF80000000499
:102E3000EC49086009204860C02088600020C86014
:102E40004FF480600861084605F0EBFDFFF7F5FEE2
:102E500004460CB1204669E7E4480068E44908608C
:102E6000E248001D00684860E0480830006888605B
:102E7000DE480C300068C860002057E710B506E057
:102E8000DA482030046804F0450000B100E0F7E7BC
:102E900000BF042005F058FE20B1042005F05FFEBD
:102EA000032010BD40F2FF5005F059FE0020F8E766
:102EB00070B500264FF4803506E0CC482030046819
:102EC00004F0450000B103E02800A5F10105F4D1AC
:102ED00000BF15B104F0040028B10326042005F05A
:102EE0003EFE304670BD04F0400018B10026402080
:102EF00005F035FE3046F5E770B500254FF4803417
:102F000004E0802005F020FE00B103E02000A4F1E1
:102F10000104F6D100BF0CB9032070BD40F2FF5090
:102F200005F01DFE2846F8E72DE9F04700270024AC
:102F300000260025A046A1467620AE49087500204F
:102F4000086048608860C8600861084605F03FFD79
:102F5000032005F05CFDA5481038006840F480703F
:102F6000A2491039086000BF12E000209D490860A6
:102F700048608860C8604FF480600861084605F0CA
:102F800050FDFFF7B9FF044604B903E0781CC7B24F
:102F90004A2FEADB00BF14B12046BDE8F0874FF4AA
:102FA000D570904908600820486040208860002063
:102FB000C8604FF480600861084605F032FDFFF7F5
:102FC00077FF044624B90120854908704FF08049F5
:102FD0000020844908603720486040208860002035
:102FE000C8604FF480600861084605F01AFD37207C
:102FF000FFF707FB0446002C4BD134E00020794951
:10300000086037204860402088600020C8604FF486
:1030100080600861084605F004FD3720FFF7F1FAEB
:1030200004460CB12046B8E7734849EA00006D49F0
:10303000086029204860402088600020C8604FF464
:1030400080600861084605F0ECFCFFF717FF0446B6
:103050000CB12046A1E765480668012080EAD670D9
:1030600080F001086D1CB8F1000F03D14FF6FF701E
:103070008542C3D34FF6FF70854202D31B242046FE
:103080008BE706F08040060032D0022054490870D9
:103090002EE01CE059485349086001204860402058
:1030A00088600020C8604FF480600861084605F021
:1030B000B8FCFFF7E3FE04460CB120466DE74B4831
:1030C0000668012080EAD67080F001086D1CB8F116
:1030D000000F03D14FF6FF708542DBD34FF6FF7030
:1030E000854202D31B24204657E703203C49087041
:1030F000204652E73EB5002400250121404804F057
:103100004BF80121C80204F0A1F80121C80204F023
:10311000F2F84FF4F850019002208DF808008DF875
:10312000090000208DF80A0001208DF80B0001A98C
:10313000344803F093FD0420019001A9324803F0C4
:103140008DFD0C2208212F4803F013FE0C220921CB
:103150002C4803F00EFE0C220A212A4803F009FE37
:103160000C220B21274803F004FE0C2211462548AF
:1031700003F0FFFD0C220221234803F0FAFD002199
:103180004FF4006004F0B7F8FFF710FA31208DF823
:10319000000000208DF801008DF8020001208DF85C
:1031A0000300684603F069FCFFF7BEFE044614B94D
:1031B000FFF7B3FD04461CB91448FFF7ABFB044608
:1031C00034B91249B1F854100804FFF78EFB0446D5
:1031D00024B94FF40060FFF757FB0446E4B117E051
:1031E000AC000020A0140020B0000020142C0140EE
:1031F000CC14002088140020000010800080FF8084
:103200000C00400000080240000C0240F0140020B6
:10321000FE480078032812D1FD4890F8560020B1EE
:10322000FB4890F85600012801D1022500E0002556
:103230002846FFF7DDF90020FFF7D0F904462046C5
:103240003EBD10B5002005F0E2FB002010BD70B5BA
:1032500090B004460E46154600BFEE4805F0C3FD8B
:103260000028FAD1EB4805F095FC4FF00060019082
:10327000E9480290039404950020059006904FF4CD
:1032800080600790800008908000099000200A90DC
:103290004FF440300B9004200C9003200D904FF41D
:1032A00000000E9080100F9001A9DA4805F014FD7F
:1032B0002021D84805F060FD0121D64805F046FDE3
:1032C00010B070BD0146002002E04910421CD0B28F
:1032D0000129FAD170472DE9F84F814617469846E3
:1032E0000A9C4FF0000AD3464D464FF0FF36B9F125
:1032F000000F02D12620BDE8F88F0020C6495439BE
:103300000860C2480078022805D10402780A40EA21
:10331000C8574FEA68280020C04988604860401EAE
:103320000860012048610020C8600861084605F077
:10333000A4FBB9486C38006800F0007008B10E209A
:10334000D9E7002C21DDB4F5006F1EDC601E2040A3
:10335000D8B92046FFF7B6FF0090B14804601020AE
:10336000AF494860402088600020C8604FF480600A
:103370000861084605F055FB1020FFF742F9824628
:10338000BAF1000F03D05046B5E72620B3E7009806
:103390000001A2498860084644604FF0FF30086091
:1033A000012048610220C86000200861084605F03D
:1033B00064FB9B4807601120994948604020886061
:1033C0000020C8604FF480600861084605F029FBC2
:1033D0001120FFF716F98246BAF1000F01D05046CE
:1033E00089E79048007800285AD1FCF794FF17E04D
:1033F0004FF4004005F0A8FB70B14FF0000B05E062
:103400008548006845F82B000BF1010BBBF1080F54
:10341000F6D32035844E03E00EB904206BE7761E08
:103420007D484C38006840F22A6108400028DFD00F
:10343000082005F089FB20B1082005F090FB04204E
:1034400059E7022005F080FB20B1022005F087FB40
:10345000022050E7202005F077FB20B1202005F066
:103460007EFB062047E74FF4007005F06DFB28B1A6
:103470004FF4007005F073FB07203CE703E066485B
:10348000006828602D1D4FF4001005F05DFB00283A
:10349000F5D1FCF742FF40F2FF5005F060FB39E048
:1034A00060480078012835D10020604908706049E3
:1034B00008706049087058484438006840F22A3162
:1034C000084355494439086053485438006840F06F
:1034D0000800514954390860002221464846FFF748
:1034E000B6FE00E0761E4B485838006800F00060D9
:1034F00038B95048007820B94C48007808B9002EF7
:10350000F0D10EB90420F6E64848007810B14748DB
:1035100090F800A05046EEE62DE9FF5F174698466A
:10352000DDE90E464FF00009CA464FF0FF3542492B
:103530000098086000203849543908603348007802
:10354000022805D10402780A40EAC8574FEA6828E1
:103550000020324988604860401E086001204861B0
:103560000020C8600861084605F087FA2A486C38D0
:10357000006800F0007018B10E2004B0BDE8F09FA4
:10358000002C21DDB4F5006F1EDC601E2040D8B990
:103590002046FFF797FE834621480460102020490B
:1035A0004860402088600020C8604FF48060086157
:1035B000084605F036FA1020FFF723F88146B9F1E6
:1035C000000F03D04846D8E72620D6E7012E6ED953
:1035D00006FB04F0B0F1007F01D32620CDE74FEACF
:1035E0000B100E49886006FB04F048604FF0FF3076
:1035F0000860012048610220C86000200861084678
:1036000005F03BFA06480760122017E0AC000020E6
:10361000F014002058640240802C0140B4140020B3
:10362000A0140020B4000020FFFF7F00B60000209F
:10363000B5000020B7000020B8000020F94948601C
:10364000402088600020C8604FF480600861084610
:1036500005F0E7F91220FEF7D4FF8146B9F1000F1B
:1036600001D0484689E7F048007800287ED1FCF771
:1036700052FE1EE04FF4004005F066FAA0B14FF094
:10368000000A07E0E9480068E949096841F82A00AA
:103690000AF1010ABAF1080FF4D3E54800682030B6
:1036A000E3490860E34D04E015B9042065E7AEE0A6
:1036B0006D1EDE484C38006840F22A310840002870
:1036C000D8D0082005F040FA20B1082005F047FACC
:1036D000042052E7022005F037FA20B1022005F05D
:1036E0003EFA022049E7202005F02EFA20B12020E2
:1036F00005F035FA062040E74FF4007005F024FA93
:1037000028B14FF4007005F02AFA072035E709E0E8
:10371000C6480068C64909680860C5480068001DB9
:10372000C34908604FF4001005F00EFA0028EFD1ED
:103730004FF4807005F008FA20B3BF48007838B124
:10374000BD480078012803D0BB480078022819D171
:103750000020B44908600C204860402088600020A8
:10376000C8604FF480600861084600E011E005F091
:1037700058F90C20FEF745FF8146B9F1000F01D042
:103780004846FAE6FCF7C9FD40F2FF5005F0E7F9BC
:103790003DE0A5480078012839D10020A7490870EC
:1037A0000120A74908700020A64908709F484438A6
:1037B000006840F22A3108439C49443908609B481C
:1037C0005438006840F0080098495439086006FBF6
:1037D00004F100220098FFF73AFD00E06D1E9A48C0
:1037E000006800F0006008B9002DF7D10DB9042081
:1037F000C3E600BF9348007818B9904800780028C5
:10380000F8D08E48007810B18C4890F80090484667
:10381000B3E61CB504460020019000908B48008858
:103820000004804908600D20486040208860002026
:10383000C8604FF480600861084605F0F2F87B48E4
:103840004C380068009003E078484C3800680090DD
:10385000009800F045000028F6D0012005F074F92A
:1038600020B1012005F07BF901201CBD042005F0EA
:103870006BF920B1042005F072F90320F5E76B48DD
:10388000703800680D2801D01020EEE740F2FF509C
:1038900005F065F965486C38006801900198C0F33F
:1038A000432020700020E0E72DE9FF5F86B0174637
:1038B0009846149D0026002005900490002481461F
:1038C0000390824602900195DDF818B0DDF818B03B
:1038D000BBF1000F03D126200AB0BDE8F09F002005
:1038E0005249543908605A4988604860401E08604F
:1038F000012048610020C8600861084605F0BDF855
:103900004A486C38006800F0007008B10E20E3E708
:1039100049480078022805D10502780A40EAC857CC
:103920004FEA6828002D1FDDB5F5006F1CDC681E0E
:103930002840C8B92846FFF7C5FC059039480560FE
:10394000102038494860402088600020C8604FF44B
:1039500080600861084605F064F81020FEF751FE0B
:1039600006461EB13046B7E72620B5E7374800883F
:1039700000042C4908600D20486040208860002029
:10398000C8604FF480600861084605F04AF80D20D1
:10399000FEF737FE06460EB130469DE723486C38E9
:1039A000006803904FF0FF341CE0641E2748008835
:1039B00000041C4908600D204860402088600020F9
:1039C000C8604FF480600861084605F02AF80D20B1
:1039D000FEF717FE06460EB130467DE713486C38F9
:1039E00000680390039800F4807008B9002CDCD1C3
:1039F0000CB9292070E70B48076018200949486076
:103A0000402088600020C8604FF48060086108464C
:103A100005F007F81820FEF7F4FD0646D6B130464B
:103A20005AE70000A0140020B4000020802C0140C0
:103A3000B8000020FFFF7F00AC000020B60000208F
:103A4000B5000020B700002000640240B000002054
:103A5000B41400200020F849087005980001F749C7
:103A60008860084645604FF0FF30086001204861DB
:103A70000020C8600861084604F0FFFF4FF0FF34E3
:103A8000EF48007800287CD1FCF745FC43E04FF478
:103A9000804005F059F8C8B30198A0EB0900202830
:103AA00021D20198A0EB090000F0030020B9019891
:103AB000A0EB0900800804E00198A0EB0900800851
:103AC000401C02904FF0000A09E0DE49DBF80000DC
:103AD00008600AF1010A0BF1040B09F104090298CC
:103AE0008245F2D30FE04FF0000A05E05BF82A00B0
:103AF000D44908600AF1010ABAF1080FF6D30BF1B4
:103B0000200B09F120096FF0404404E0FFE70CB9F5
:103B10000420E1E6641ECB484C38006840F21A618C
:103B200008400028B3D0082005F00EF820B1082086
:103B300005F015F80420CFE6022005F005F820B1C5
:103B4000022005F00CF80220C6E6102004F0FCFF6D
:103B500020B1102005F003F80520BDE64FF40070F9
:103B600004F0F2FF30B14FF4007004F0F8FF0720CA
:103B7000B2E606E0FCF7D1FB40F2FF5004F0EFFFA5
:103B800043E0AF48007801283FD10020AE490870DB
:103B9000A9490870AD490870AA484438006840F245
:103BA0001A310843A749443908604022294606983B
:103BB000FFF74DFBA3485438006840F00800A149C6
:103BC0005439086000E0641EA148006800F00060FD
:103BD00008B9002CF7D11CB9FFF78CFA04207BE65A
:103BE0004FF0FF3400E0641E9848007820B99648F2
:103BF000007808B9002CF6D10CB904206CE6924884
:103C0000007810B19048007866E640F2FF5004F06A
:103C1000A6FF04A8FFF7FDFD064603E004A8FFF792
:103C2000F8FD06463EB99DF810000728F6D09DF82D
:103C300010000628F2D030464EE62DE9FF5F84B032
:103C4000DDE91247002600200390029000258046FF
:103C50008146019007FB04FBDDF810A0DDF810A001
:103C6000BAF1000F03D1262008B0BDE8F09F002074
:103C7000744954390860714988604860401E086082
:103C8000012048610020C8600861084604F0F5FE84
:103C90006C486C38006800F0007008B10E20E3E753
:103CA0006C480078022808D10402DDE90601400AC8
:103CB00040EAC1504912CDE90601002C1FDDB4F5E0
:103CC000006F1CDC601E2040C8B92046FFF7FAFADE
:103CD00003906148046010205F494860402088607C
:103CE0000020C8604FF480600861084604F099FE27
:103CF0001020FEF786FC06461EB13046B4E72620AB
:103D0000B2E7012F6FD907FB04F0B0F1007F01D3B8
:103D10002620A9E74F48007838B14E48007801289E
:103D200003D04C48007802282DD14C48008800046C
:103D30004949086037204860402088600020C860FA
:103D40004FF480600861084604F06BFE3720FEF7F0
:103D500058FC06460EB1304686E73F4807601720FC
:103D60003D494860402088600020C8604FF4806072
:103D70000861084604F055FE1720FEF742FC06468F
:103D80000EB1304670E73449069808601920486043
:103D9000402088600020C8604FF4806008610846B9
:103DA00004F03FFE1920FEF72CFC06460EB130460B
:103DB0005AE7039800012149886007FB04F0486036
:103DC0004FF0FF300860012048610020C8600861A2
:103DD000084604F052FE1A480078002872D1451EA9
:103DE000FCF799FA54E0F8E04FF4804004F0ACFEA0
:103DF000B0B3ABEB0800202833D2ABEB080000F0E7
:103E0000030018B9ABEB0800800803E0ABEB080037
:103E10008008401C01904FF0000909E00949DAF8D8
:103E20000000086009F101090AF1040A08F1040818
:103E300001988145F2D324E0B5000020B41400209D
:103E4000B4000020802C0140B6000020B700002004
:103E500000640240AC000020A0140020B00000204C
:103E600012E04FF0000905E05AF82900F749086010
:103E700009F10109B9F1080FF6D30AF1200A08F196
:103E800020086FF0404503E00DB90420ECE66D1EFC
:103E9000EE484C38006840F21A3108400028A3D0A0
:103EA000082004F051FE20B1082004F058FE042040
:103EB000DAE6022004F048FE28B1022004F04FFEAA
:103EC0000220D1E640E0102004F03EFE20B1102098
:103ED00004F045FE0520C7E64FF4007004F034FE00
:103EE00028B14FF4007004F03AFE0720BCE64FF40E
:103EF000807004F029FE00B3D548007838B1D4486A
:103F00000078012803D0D2480078022815D100207B
:103F1000D04908600C204860402088600020C860BC
:103F20004FF480600861084604F07BFD0C20FEF72A
:103F300068FB06460EB1304696E6FCF7EEF940F215
:103F4000FF5004F00CFE48E0C3480078012844D13B
:103F50000020C24908700120C14908700020C149F1
:103F60000870BA484438006840F21A310843B7492B
:103F70004439086007FB04F140220498FFF767F911
:103F8000B2485438006840F00800B049543908601D
:103F90004FF0FF3500E06D1EB348006800F0006090
:103FA00008B9002DF7D11DB9FFF7A4F804205BE68E
:103FB0004FF0FF3500E06D1EAA48007820B9A748F1
:103FC000007808B9002DF6D10DB904204CE6A348BD
:103FD000007810B1A148007846E640F2FF5004F0A6
:103FE000BEFD02A8FFF715FC064603E002A8FFF796
:103FF00010FC06463EB99DF808000728F6D09DF84B
:1040000008000628F2D030462EE610B54FF4807036
:1040100004F09AFD88B392480078012814D100205A
:104020008C4908600C204860402088600020C860EF
:104030004FF480600861084604F0F3FC0C20FEF7A2
:10404000E0FA8649087002E00020844908707F4841
:104050004838006840F480707C4948390860081D81
:1040600000684CF23A3188437849443908600120AD
:104070007C4908707948007810BDFFE7022004F001
:1040800063FD78B1022004F06AFD7048443800688E
:104090004CF23A3188436D494439086002206F4937
:1040A0000870E9E7082004F04FFD78B1082004F01B
:1040B00056FD6648443800684CF23A3188436349FB
:1040C00044390860042065490870D5E7202004F0D1
:1040D0003BFD78B1202004F042FD5C484438006884
:1040E0004CF23A31884359494439086006205B490B
:1040F0000870C1E7102004F027FD78B1102004F00B
:104100002EFD5248443800684CF23A3188434F49FA
:1041100044390860052051490870ADE74FF400703C
:1041200004F012FD80B14FF4007004F018FD474810
:10413000443800684CF23A318843444944390860B5
:1041400007204649087097E7002095E710B5FFF76C
:104150005CFF10BD70B50446002514B9262528461D
:1041600070BD4248008800043A4908600D2048604C
:10417000402088600020C8604FF4806008610846D5
:1041800004F04FFC0D20FEF73CFA05460DB1284621
:10419000E6E72E486C38006820602846E0E708B55E
:1041A000002000906846FFF7D5FF08B1FF2008BD4A
:1041B0000098C0F34320FAE72DE9FE4F83460C46F2
:1041C000914600200290002625462C46700240EAC7
:1041D000D5566D020BF00300F0B14FF0000A18E065
:1041E0004FF4007000904FEA4A20471946EBE07305
:1041F0003A461F48FFF76FF802904FF400721C49CF
:1042000058460BF04AFF0BF5007B0AF1010000F065
:10421000FF0ACA45E4DB16E0B9F1010F09D14FF4FA
:1042200000702A46334600905846FFF754F8029033
:1042300009E04FF400702A463346CDE9000958469C
:10424000FFF76AF902900298BDE8FE8F802C0140CA
:10425000AC000020A0140020B4000020B600002014
:10426000B5000020B700002000640240B00000202C
:10427000481500202DE9FE4F81460C46924600204D
:104280000290002625462C46700240EAD5566D0263
:1042900009F00300F0B14FF0000B18E04FF400728A
:1042A000494619480BF0F9FE4FF4007000904FEAB0
:1042B0004B20471946EBE0733A461348FFF7F4FAF0
:1042C000029009F500790BF1010000F0FF0BD345D6
:1042D000E4DB16E0BAF1010F09D14FF400702A4671
:1042E000334600904846FFF7DFFA029009E04FF4AA
:1042F00000702A463346CDE9000A4846FFF79DFC88
:1043000002900298BDE8FE8F481500201CB50121DF
:10431000202002F041FF0F20009001208DF80400C2
:1043200000208DF8060003208DF8050000208DF890
:10433000070069466E4802F091FC1E216C4802F0AD
:104340000BFDF020009000208DF8040003208DF874
:10435000050001208DF807006946654802F07EFCE3
:104360001CBD10B5002462481430006800F47F4181
:104370005F4802F0F8FC5E481030006800F0F00082
:10438000F02801D1601E10BD142002F08DFA5848AB
:104390001030006800F0F000F02802D14FF0FF303C
:1043A000F1E75348143000684FF6F072104040F0C7
:1043B0000E014F4802F0D7FC4D481030006800F065
:1043C000F00070280BD0B02807D0D02803D0E02808
:1043D00007D1102405E00F2403E00E2401E00D2492
:1043E00000BF00BF00BF42481030006800F0F0007E
:1043F000F028F8D13E48143000684FF6F0721040B3
:1044000040F00D013A4802F0AEFC39481030006827
:1044100000F0F00070280BD0B02807D0D02803D0CF
:10442000E02807D10C2405E00B2403E00A2401E076
:10443000092400BF00BF00BF2D481030006800F005
:10444000F000F028F8D12A48143000684FF6F072D6
:10445000104040F00B01264802F085FC2448103043
:10446000006800F0F00070280BD0B02807D0D028EA
:1044700003D0E02807D1082405E0072403E0062440
:1044800001E0052400BF00BF00BF194810300068DC
:1044900000F0F000F028F8D11548143000684FF60D
:1044A000F0721040C11D124802F05DFC104810303F
:1044B000006800F0F00070280BD0B02807D0D0289A
:1044C00003D0E02807D1042405E0032403E00224FC
:1044D00001E0012400BF00BF00BF054810300068A4
:1044E00000F0F000F028F8D1C4F111004BE7000013
:1044F000001402402DE9F05F82460F461446204624
:10450000E21704EB5272D2102146E31704EB537307
:10451000DB10A4EBC3030BB1012300E000231A441A
:10452000624302F0FF099AF800600AF10100824636
:104530000578812E05DB402D03DBFF2D01D0FF2EFA
:104540000DD14FF0000B06E0002007F8010B0BF136
:10455000010000F0FF0BCB45F6DBBDE8F09F7F2D9F
:1045600003DAA5F14000C5B202E0A5F14100C5B2F1
:10457000A6F18100C6B2BE2010FB065000FB09F870
:104580000C2C04D0102C0CD0182C1ED113E0FA489F
:10459000D0F8090000EB08014A463846FDF7CFFE87
:1045A00013E0F548D0F8110000EB08014A46384600
:1045B000FDF7C5FE09E0F048D0F8190000EB08014E
:1045C0004A463846FDF7BBFE00BF00BF00BFC4E748
:1045D000F0B5144600267F2801DC3F2900DDF0BD40
:1045E0000B46CF1701EB5777FF10C7F10707FAB259
:1045F000CF1701EB5777FF10A1EBC707FDB2C5F14D
:1046000007070123BB40DEB24CB1DC4B03EBC00318
:104610009B5C3343D94F07EBC007BB5408E0D74B33
:1046200003EBC0039B5CB343D44F07EBC007BB5401
:1046300000BFD4E72DE9F04F93B006460D469046F3
:104640001C46AA462046E21704EB5272D2102146BD
:10465000E31704EB5373DB10A4EBC3030BB101238B
:1046600000E000231A44624302F0FF0B0C2C06D03A
:10467000102C04D0182C02D013B0BDE8F08F2246C5
:1046800069464046FFF736FF00272EE01DF8070079
:1046900012904FF0000922E0129800F0800028B13B
:1046A000E9B2F0B20122FFF793FF06E01C9820B9AF
:1046B000E9B2F0B20022FFF78BFF12984006000E1D
:1046C0001290681C85B2A5EB0A00A04203D15546A2
:1046D000701C86B206E009F1010000F0FF09B9F193
:1046E000080FD9DB00BF781CC7B25F45CEDB00BF27
:1046F000C2E72DE9F0478046894615461C46089FCB
:10470000002628460BF09EFC86B2204604EBD071B2
:10471000491071438EB2BDE8F08710B5984B19600F
:104720000023984CC4F89C32002214E00023964CDD
:10473000236000F080031BB10123241D236003E0EC
:104740000023914C241D236001238F4C23604306DA
:10475000180E531CDAB2082AE8DB01238B4C2360C5
:104760008B4CC4F8983210BD30B500241CE004F125
:10477000B001C8B20021FFF7D0FF00210846FFF7C3
:10478000CCFF00211020FFF7C8FF002508E07B497F
:1047900001EBC501085D0121FFF7BFFF681CC5B231
:1047A000802DF4DB601CC4B2082CE0DB30BD00B50A
:1047B00000218D20FFF7B1FF00211420FFF7ADFF8E
:1047C0000021AF20FFF7A9FF00BD00B500218D201B
:1047D000FFF7A3FF00211020FFF79FFF0021AE206D
:1047E000FFF79BFF00BD30B500240CE0002506E07C
:1047F0000020624901EBC5010855681CC5B2802D37
:10480000F6DB601CC4B2082CF0DBFFF7ADFF30BD57
:104810002DE9F04706460F4690469946DDF820A060
:1048200034460CE03D4606E0524629462046FFF756
:10483000CFFE681CC5B24D45F6DD601CC4B24445D0
:10484000F0DDFFF791FFBDE8F0872DE9F84F8046D6
:104850000F4616461C46BA462046E31704EB537330
:10486000DB1021464FEAE47C04EB5C7C4FEAEC0C65
:10487000A4EBCC0CBCF1000F02D04FF0010C01E016
:104880004FF0000C6344224604EBD27C4FEA6C0CE0
:1048900003FB0CF303F0FF0BA6F12000C6B20025CA
:1048A0004EE00C2C07D106EB46003A4901EB8000A4
:1048B000405D009013E0102C05D1374800EB061046
:1048C000405D00900BE0182C07D106EBC600334981
:1048D00001EB8000405D009001E0BDE8F88F4FF0F3
:1048E000000927E0009800F0800028B139464046D2
:1048F0000A9AFFF76DFE09E00A9808B9012000E066
:104900000020024639464046FFF762FE0098400606
:10491000000E0090781CC7B2A7EB0A00A04205D198
:10492000574608F1010000F0FF0806E009F1010018
:1049300000F0FF09B9F1080FD4DB00BF681CC5B255
:104940005D45AEDBFFF710FF00BFC6E710B50246BE
:10495000012000E050430B00A1F10104E1B2F9D1C4
:1049600010BD2DE9FF4F81B0074691461E460E9DB2
:104970004FF0000A00244DE044C9012048170020F0
:104980009882414200804042980241429C824042CB
:1049900000804142C61501083A1A01082A20010880
:1049A000301B401EC1B20A20FFF7D0FFB9FBF0F068
:1049B0000A21B0FBF1F201FB1208BAF1000F16D187
:1049C000701EA04213DDB8F1000F0ED10120AB46DE
:1049D00005EBDB71491001FB04710090C8B22B4656
:1049E00020220299FFF731FF12E04FF0010A012067
:1049F000AB4605EBDB71491001FB04710090C8B2B6
:104A000008F13001CAB22B460299FFF71EFF00BF22
:104A1000601CC4B2B442C3DBFFF7A6FE05B0BDE81C
:104A2000F08FF8B506460F4615461C4621E004EB0C
:104A3000D4714910C1F18001B14202DA002638195F
:104A4000C7B2C4F14000B84204DA00200646074667
:104A5000FFF7C9FE012000902A78234639463046E8
:104A6000FFF7F3FE204604EBD07106EB6101CEB2F6
:104A70006D1C28787E2802DC28782028D7DAF8BD3B
:104A80001CB501215F2002F087FB802000900120EF
:104A90008DF8040000208DF8060003208DF8050035
:104AA00001208DF807006946B64802F0D7F8C0200B
:104AB00000906946B44802F0D1F840200090694661
:104AC000B24802F0CBF84FF4004000906946B0487D
:104AD00002F0C4F80120AF490860AF49C1F898025C
:104AE000AE490860AE4908600020AE490860642005
:104AF00001F0DAFE0120AC49C1F8BC020021AE2071
:104B0000FFF70BFE0021D520FFF707FE0021502004
:104B1000FFF703FE0021A820FFF7FFFD00213F2043
:104B2000FFF7FBFD0021D320FFF7F7FD002108462A
:104B3000FFF7F3FD00214020FFF7EFFD00218D205E
:104B4000FFF7EBFD00211420FFF7E7FD00212020F7
:104B5000FFF7E3FD00210220FFF7DFFD0021A12088
:104B6000FFF7DBFD0021C020FFF7D7FD0021DA2091
:104B7000FFF7D3FD00211220FFF7CFFD0021812098
:104B8000FFF7CBFD0021EF20FFF7C7FD0021D92063
:104B9000FFF7C3FD0021F120FFF7BFFD0021DB205F
:104BA000FFF7BBFD00213020FFF7B7FD0021A42057
:104BB000FFF7B3FD0021A620FFF7AFFD0021AF20D6
:104BC000FFF7ABFDFFF70FFE1CBD2DE9FC5F0746AD
:104BD0000D4691469A46DDE90C64B846AB46002086
:104BE00001904CE0019870BB3078802802DD0120F4
:104BF000019044E004EBD47108EB0902A2EB6101DF
:104C0000B94202DA281985B247460BEB0A00001BAD
:104C1000A84200DA36E030780D2804D1281985B290
:104C20004746761C07E0012000903278E9B2F8B2DE
:104C30002346FFF70AFE761C204604EBD07107EBF3
:104C400061018FB21BE0FFE70020019008EB090033
:104C5000001BB84202DA281985B247460BEB0A005E
:104C6000001BA84200DA0DE00E9823463246294682
:104C700000903846FFF7DEFCB61C381987B2307852
:104C80000028AFD100BFFFF76FFDBDE8FC9F2DE905
:104C9000F84F05460C461746A24620200090434890
:104CA00000EB471B00262AE01BF806804FF00009A6
:104CB0001FE008F0800028B1E1B2E8B20122FFF75E
:104CC00087FC04E0E1B2E8B20022FFF781FC4FEA82
:104CD00048604FEA1068601C84B2A4EB0A001028F8
:104CE00003D15446681C85B206E009F1010000F0CA
:104CF000FF09B9F1080FDCDB00BF701CC6B20098D9
:104D00008642D1DBFFF730FDBDE8F88F2DE9F04F8B
:104D10000746002400264FF4806B254800EB872AC5
:104D2000002528E01AF805804FF000091DE008F082
:104D3000800028B1F1B2E0B20122FFF749FC04E0A3
:104D4000F1B2E0B20022FFF743FC4FF6FF7000EA39
:104D50004808601C84B2802C03D10024701C86B2E9
:104D600006E009F101001FFA80F9B9F1080FDEDB56
:104D700000BF681C85B25D45D4DBFFF7F5FCBDE8DC
:104D8000F08F00000004024000080240000C0240C6
:104D9000001802409C024142000041429C82404275
:104DA00098824142BC02434200004342862D0108E2
:104DB000C62D01081CB50121084602F0EDF940207E
:104DC000009000208DF8040002208DF807000320D9
:104DD0008DF805006946F74801F040FF1CBD00BF93
:104DE000F549098801F040010029F9D0F249091D6F
:104DF0000880704710B5EF20FFF7F1FF0120FFF7A3
:104E0000EEFF10BD10B5ED490968080EFFF7E7FF8A
:104E1000EA480068C0F30740FFF7E1FFE748008871
:104E2000C0F30720FFF7DBFFE4490878FFF7D7FF5F
:104E300010BD10B504462046FFF7D1FF10BD10B5D8
:104E40000446C4F30720FFF7CAFFE0B2FFF7C7FF2D
:104E500010BD10B504462046FFF7C1FF10BD10B5C8
:104E600004462012FFF7BBFFE0B2FFF7B8FF10BD0A
:104E70007CB50546EF208DF8000001208DF801007B
:104E8000CE480068000E8DF80200CC480068000C87
:104E90008DF80300C9480088000A8DF80400C7484F
:104EA00000788DF8050007208DF8060000208DF8A9
:104EB0000700C349088012E0012001F0F5FCC0485A
:104EC000008800F4004050B10020BD4908806946C8
:104ED000BC480BF055F804460CB120467CBD681E5A
:104EE00080B20500E8D100BFF8E770B5FFF782FF98
:104EF000FFF788FF0120FFF79CFF0320FFF79FFFCC
:104F00000120FFF7A6FF05263046FFF7A8FF4FF464
:104F1000FA60FFF7ADFF05460DB16C7A00E0FF24A3
:104F2000204670BD2DE9F0410546FFF763FFFFF70E
:104F300069FF0120FFF77DFF0420FFF780FF0220BB
:104F4000FFF787FF2846FFF74AFFEF1D3846FFF7B8
:104F500086FF4FF4FA60FFF78BFF06460EB1747AB6
:104F600000E0FF242046BDE8F08170B5FFF742FF66
:104F7000FFF748FF0120FFF75CFF0320FFF75FFF0B
:104F80000320FFF766FF07263046FFF768FF4FF460
:104F9000FA60FFF76DFF05460DB16C7A00E0FF2463
:104FA000204670BD2DE9F04781460D4616461F4646
:104FB000FFF720FFFFF726FF0120FFF73AFF082049
:104FC000FFF73DFF0420FFF744FF4846FFF707FFC8
:104FD0002812FFF704FFE8B2FFF701FF3012FFF7D6
:104FE000FEFEF0B2FFF7FBFE09F10D0000EB2520FD
:104FF000E9B2084400EB2620F1B200EB010A50466A
:10500000FFF72DFF4FF4FA60FFF732FF044664B15B
:1050100094F80980E07AA17A00EB01203880607B67
:10502000217B00EB0120788001E04FF0FF08404633
:10503000BDE8F08770B5FFF7DDFEFFF7E3FE012066
:10504000FFF7F7FE0320FFF7FAFE0520FFF701FF49
:1050500009263046FFF703FF4FF4FA60FFF708FF19
:1050600005460DB16C7A00E0FF24204670BD2DE9A5
:10507000F04106460C46FFF7BDFEFFF7C3FE0120D8
:10508000FFF7D7FE0620FFF7DAFE0620FFF7E1FE66
:105090003046FFF7A4FE2012FFF7A1FEE0B2FFF7B3
:1050A0009EFE06F10D0000EB2420E1B200EB0108AA
:1050B0004046FFF7D4FE4FF4FA60FFF7D9FE0746EB
:1050C0000FB17D7A00E0FF252846BDE8F0812DE98B
:1050D000F04104460D46FFF78DFEFFF793FE0120D9
:1050E000FFF7A7FE0720FFF7AAFE0C20FFF7B1FE8F
:1050F0002012FFF774FEE0B2FFF771FE2812FFF7EF
:105100006EFEE8B2FFF76BFE142000EB2420E1B244
:10511000084400EB2520E9B200EB01084046FFF708
:105120009EFE4FF4FA60FFF7A3FE07460FB17E7AAA
:1051300000E0FF263046BDE8F08170B5FFF75AFE6B
:10514000FFF760FE0120FFF774FE0320FFF777FEF4
:105150000D20FFF77EFE11263046FFF780FE4FF44C
:10516000FA60FFF785FE05460DB16C7A00E0FF247A
:10517000204670BD0146212977D2DFE801F01113E6
:10518000151719535557595B5D5F767676766163CF
:1051900076767665767667696B6D70767672740072
:1051A00009A064E009A062E00CA060E010A05EE04D
:1051B00014A05CE00000024000440040BC0000205D
:1051C000C0000020D81C00204F4B0000CAFDBEDDEF
:1051D000B0FCBDD3CAD5B4EDCEF30000B4ABB8D0AB
:1051E000C6F7C9CFC3BBD3D0CAD6D6B8000000001B
:1051F000C2BCC8EBD6B8CEC6CDBCCFF1CAA7B0DC16
:1052000000000000D6B8CEC6CDBCCFF1CCABB8C93B
:10521000A1A2CCABB5ADB6F8C9FAB2BBB3C9CCD874
:10522000D5F70000AFA022E0B6A020E0BCA01EE0B1
:10523000C9A01CE0C8A01AE0CAA018E0CDA000BF19
:10524000D5A014E0D8A012E0DBA010E0E3A00EE0AF
:10525000E6A00CE0E8A00AE0EBA008E005E0EFA083
:1052600005E0F3A003E0F5A001E0F7A000BF00BF58
:1052700070472DE9F04706460D46FFF7BBFDFFF7E7
:10528000C1FD0120FFF7D5FD0520FFF7D8FD0E2059
:10529000FFF7DFFD3046FFF7A2FD2846FFF79FFD31
:1052A000701900F114084046FFF7D9FD4FF4FA6079
:1052B000FFF7DEFD07460FB17C7A00E0FF241CB942
:1052C000E6A00AF0A1FC07E02046FFF753FF814665
:1052D0004946E7A00AF098FC2046BDE8F0872DE992
:1052E000F0410546FFF786FDFFF78CFD0120FFF733
:1052F000A0FD0320FFF7A3FD0F20FFF7AAFD132752
:105300003846FFF7ACFD4FF47A70FFF7B1FD044665
:10531000BCB1667AE07BA17B00EB01202880607C39
:10532000A870A07C0006E17C00EB0140217D00EB31
:105330000120617D08446860E07D2872607E6872AB
:1053400000E0FF26A6B92988CBA00AF05DFCA97869
:10535000CFA00AF059FCD2A069680AF055FC687A1F
:105360004FF4165210FB02F1D0A00AF04DFC07E0FA
:105370003046FFF7FFFE80464146BDA00AF044FCE0
:105380003046BDE8F0812DE9F0410446FFF732FDDB
:10539000FFF738FD0120FFF74CFD0720FFF74FFD19
:1053A0001520FFF756FD200EFFF719FDC4F3074047
:1053B000FFF715FDC4F30720FFF711FDE0B2FFF77B
:1053C0000EFD1D2000EB1460C4F307410844C4F334
:1053D00007210844E1B247183846FFF740FDB648B8
:1053E00004604FF4FA60FFF743FD06460EB1757A8C
:1053F00000E0FF25B04804601DB9B0A00AF004FC2D
:1054000007E02846FFF7B6FE8046414698A00AF01E
:10541000FBFB2846BDE8F0812DE9F04781460E46AA
:10542000FFF7E8FCFFF7EEFC0120FFF702FD242068
:10543000FFF705FD1820FFF70CFD4846FFF7CFFCEE
:10544000002407E0305DFFF7CAFC305D384487B2C6
:10545000601CC4B2202CF5DB09F13D00384487B252
:105460003846FFF7FCFC4FF4FA60FFF701FD0546F4
:1054700015B195F8098001E04FF0FF084046BDE8FE
:10548000F0872DE9F04707468846FFF7B3FCFFF7A2
:10549000B9FC0120FFF7CDFC0420FFF7D0FC192058
:1054A000FFF7D7FC3846FFF79AFC07F11E0948467C
:1054B000FFF7D5FC4FF4FA60FFF7DAFC064666B159
:1054C000757A002406E004F10A00305C08F8040054
:1054D000601CC4B2202CF6DB00E0FF252846BDE8A6
:1054E000F0870000D6B8CEC6CDBCCFF1CCABCAAAEF
:1054F000A1A2CCABBAFDB6F8C9FAB2BBB3C9CCD83D
:10550000D5F70000D6B8CEC6CDBCCFF1CCABC2D259
:10551000B6F8C9FAB2BBB3C9CCD8D5F700000000C1
:10552000D6B8CEC6CDBCCFF1D5FDB3A3A3ACB5AB39
:10553000CCD8D5F7B5E3CCABC9D9A3A8BBF2C3E6A9
:10554000BBFDCCABD0A1A3A9B6F8C9FAB2BBB3C915
:10555000CCD8D5F700000000D6B8CEC6B2BBC6A5E1
:10556000C5E42100CCD8D5F7BACFB2A2CAA7B0DC27
:1055700000000000B7C3CECAD6B8CEC6BFE2CAB1DB
:10558000B5D8D6B7D0F2BAC5B3ACB3F6D6B8CEC696
:10559000BFE2B7B6CEA70000C9BEB3FDC4A3B0E555
:1055A000CAA7B0DC00000000C7E5BFD5D6B8CEC69C
:1055B000BFE2CAA7B0DC0000BBBAB3E5C7F8C4DAE3
:1055C000C3BBD3D0D3D0D0A7D4ADCABCCDBCB6F862
:1055D000C9FAB2BBB3C9CDBCCFF10000B6C1D0B4DB
:1055E00020464C41534820B3F6B4ED00CEB4B6A8E3
:1055F000D2E5B4EDCEF30000CEDED0A7BCC4B4E655
:10560000C6F7BAC500000000BCC4B4E6C6F7C9E8D6
:10561000B6A8C4DAC8DDB4EDCEF30000BCC7CAC278
:10562000B1BED2B3C2EBD6B8B6A8B4EDCEF300008B
:10563000D6B8CEC6BFE2C2FA00000000B5D8D6B7D1
:10564000B4EDCEF300000000C4A3BFE9B7B5BBD8EA
:10565000C8B7C8CFC2EBD3D0CEF300000D0AC9E85B
:10566000D6C3B2CECAFDB3C9B9A6A3A1000000003B
:105670000D0A2573000000000D0AC4A3BFE9D7EE90
:10568000B4F3D6B8CEC6C8DDC1BF3D256400000066
:105690000D0AB6D4B1C8B5C8BCB63D25640000003B
:1056A0000D0AB5D8D6B73D25780000000D0AB2A87E
:1056B000CCD8C2CA3D256400BC0000200D0AC9E850
:1056C000D6C3B5D8D6B7B3C9B9A6A3A10000000008
:1056D0002DE9F04781460D4616461F46FFF78AFB27
:1056E000FFF790FB0120FFF7A4FB0820FFF7A7FBC3
:1056F0001B20FFF7AEFB4846FFF771FB2812FFF7B0
:105700006EFBE8B2FFF76BFB3012FFF768FBF0B2FD
:10571000FFF765FB09F1240000EB2520E9B20844FE
:1057200000EB2620F1B200EB010A5046FFF797FB91
:105730004FF4FA60FFF79CFB044664B194F80980CB
:10574000E07AA17A00EB01203880607B217B00EBBE
:105750000120788001E04FF0FF084046BDE8F08767
:105760002DE9F0410646FFF745FBFFF74BFB012013
:10577000FFF75FFB0320FFF762FB1D20FFF769FBCC
:1057800021273846FFF76BFB4FF4FA60FFF770FBF9
:10579000044634B1657AE07AA17A00EB01203080CA
:1057A00000E0FF253DB9E07AA27A00EB022125A0B6
:1057B0000AF02AFA08E02846FFF7DCFC804641465A
:1057C000AFF254100AF020FA2846BDE8F08110B577
:1057D0000446FFF70FFBFFF715FB0120FFF7FFFA69
:1057E0000020FFF7FCFA0020FFF7F9FAC82001F0CB
:1057F0005BF81948008800F4004008B317480078A7
:10580000EF281AD115484078012816D1134880791D
:10581000072812D11148807800061049C97800EB9A
:1058200001400E49097900EB01200C4949790844EF
:10583000206000200849088010BD0020064908802B
:105840000120F9E70D0AD3D0D0A7D6B8CEC6B8F656
:10585000CAFD3D2564000000C0000020D81C0020C7
:1058600010B540F22551594801F0CAFF00B357481E
:1058700001F004FFC4B25648008800F40040B8B9F3
:1058800053480088B0F5C87F13DA0021514802F070
:10589000F7F84F48008818B901214E4802F030F956
:1058A0004B4801880088401C494A10804A484454AB
:1058B00005E04748008840F400404549088010BD95
:1058C00010B588B004460121084601F065FC0121AD
:1058D000480401F0AAFC3D4801F0B2FD0722022174
:1058E0003E4801F046FA072203213C4801F041FA04
:1058F0000C20059002208DF818008DF8190000206A
:105900008DF81A0001208DF81B0005A9334801F01D
:10591000A5F901940020ADF80800ADF80A00ADF833
:105920000C00ADF810000C20ADF80E0001A92748BE
:1059300001F0EDFD0121254801F071FE012240F248
:105940002551224801F021FF26208DF81C0001205E
:105950008DF81D0000208DF81E0001208DF81F001D
:1059600007A801F08AF842F2CF0140F2E73000F0D8
:105970004EF80020164908800021164802F0C0F8B1
:1059800008B010BD0FB438B505A800901448009AAF
:1059900004990AF027F90020009011480AF052FB00
:1059A00085B200240DE000BF4021084801F012FF3D
:1059B0000028F9D00A48015D044801F05BFE601C34
:1059C00084B2AC42EFDB38BC5DF814FB004400400D
:1059D000C000002000140040D81C0020000002403D
:1059E000481B002010B501211C4802F0B8FC68B12A
:1059F0001B48008840F400401949088001211748DD
:105A000002F0BEFC0021154802F07AF810BD7FB507
:105A100005460C460121202001F007FC0195ADF858
:105A200000400020ADF80800ADF8020069460B48C0
:105A300001F0DDFF01221146084802F079FC372011
:105A40008DF80C0001208DF80D008DF80E008DF8FA
:105A50000F0003A801F011F87FBD00000014004002
:105A6000C00000201CB50121082001F095FB4FF477
:105A70002A40009001208DF8040000208DF80600D7
:105A800003208DF8050001208DF80700694659486C
:105A900001F0E4F84FF42A41564801F05DF91CBDCD
:105AA00010B5002442E0012053490860002053490A
:105AB000C1F8AC025049103108605049C1F8BC022D
:105AC000032000F0F1FE00204B49086001204A4904
:105AD0000831086000204849103108604749C1F882
